:020000040800F2
:10000000B0C20224A503000801480008B146000858
:10001000F947000849120008215B000800000000B1
:10002000000000000000000000000000814A0008FD
:10003000511200080000000039480008B94A0008C1
:10004000CB030008CB030008CB030008CB03000858
:10005000CB030008CB030008CB030008CB03000848
:10006000CB030008CB030008CB030008CB03000838
:10007000CB030008CB030008CB030008CB03000828
:10008000CB030008CB030008CB030008CB03000818
:10009000CB030008CB030008CB030008CB03000808
:1000A000CB030008CB030008CB030008CB030008F8
:1000B000CB030008CB030008CB030008CB030008E8
:1000C000CB030008CB030008CB030008CB030008D8
:1000D000CB030008115B0008CB030008CB0300082A
:1000E000CB030008CB03000800000000CB0300088E
:1000F000CB030008CB030008CB030008CB030008A8
:10010000CB030008CB030008CB030008CB03000897
:10011000CB030008CB030008914B0008CB03000879
:10012000CB030008CB030008CB030008CB03000877
:10013000CB030008CB030008CB030008CB03000867
:1001400000000000000000000000000000000000AF
:10015000CB030008CB030008CB030008CB03000847
:10016000CB030008CB030008CB030008CB03000837
:10017000CB030008CB030008CB03000800000000FD
:10018000CB030008CB030008CB030008CB03000817
:10019000CB030008CB030008CB030008CB03000807
:1001A000CB030008CB030008CB030008CB030008F7
:1001B000CB030008CB030008CB030008CB030008E7
:1001C000CB030008CB030008CB030008CB030008D7
:1001D000CB030008CB030008CB030008CB030008C7
:1001E000CB030008CB030008CB030008CB030008B7
:1001F000CB030008CB030008CB030008CB030008A7
:10020000CB030008CB030008CB030008CB03000896
:10021000CB030008CB030008CB030008CB03000886
:10022000CB030008CB030008CB030008000000004C
:10023000CB030008CB03000800000000CB0300083C
:10024000CB030008CB030008CB030008CB03000856
:10025000CB030008CB030008CB030008CB03000846
:10026000CB030008CB030008CB030008CB03000836
:10027000CB030008CB030008CB03000800000000FC
:10028000CB030008CB030008CB03000800000000EC
:1002900000000000CB03000800F002F800F072F844
:1002A0000AA090E8000C82448344AAF10107DA45D1
:1002B00001D100F067F8AFF2090EBAE80F0013F0B1
:1002C000010F18BFFB1A43F001031847ACD4090013
:1002D000CCD409000A444FF0000C10F8013B13F095
:1002E000070408BF10F8014B1D1108BF10F8015B8F
:1002F000641E05D010F8016B641E01F8016BF9D182
:1003000013F0080F1EBF10F8014BAD1C0C1B09D1D8
:100310006D1E58BF01F801CBFAD505E014F8016B4A
:1003200001F8016B6D1EF9D59142D6D370470000DC
:100330000023002400250026103A28BF78C1FBD8EE
:10034000520728BF30C148BF0B607047662935F09F
:10035000A487642900F01081782900F0498173296D
:1003600000F0F785002070471FB535F089FF00F0D9
:1003700039FE04000020002135F06CFFE0601FBD55
:1003800010B510BD00F032FF1146FFF7EDFF2FF062
:10039000E7F900F050FF03B4FFF7F2FF03BC07F0EA
:1003A000B7FF0000DFF83000016841F47001016020
:1003B0000A4880470A480047FEE7FEE7FEE7FEE7F7
:1003C000FEE7FEE7FEE7FEE7FEE7FEE70548064933
:1003D000044A064B7047000088ED00E0C14A00085F
:1003E00099020008B0420224B0C20224B0420224A2
:1003F000704753EA020C00F069802DE9F04B4FF092
:100400000006002B1FBFB3FA83F503FA05F424FAA4
:1004100005F65E4012BF1643B2FA82F502FA05F401
:10042000C5F120051EBF22FA05FC44EA0C04203564
:1004300056EA044C4FEA144418BF641C4FF00008FD
:100440004FF00009904271EB030C39D3002919BF1A
:10045000B1FA81F701FA07F6B0FA80F700FA07F669
:10046000C7F120071EBF20FA07FC46EA0C0620371A
:10047000B6FBF4FCA7EB0507103F07F01F0BCBF111
:1004800020062CFA06F60CFA0BFB44BFB3460026F6
:10049000202FA4BF5E464FF0000B5BEA060C08BF9E
:1004A0004FF0010B19EB0B0948EB0608ABFB027C84
:1004B00006FB02CC0BFB03CCC01B71EB0C01C1E7AC
:1004C0000B46024641464846BDE8F08B13B508434B
:1004D00018BF4FF0FF300146AFF30080BDE81C406D
:1004E000704700000FB4044910B503AA029800F049
:1004F00035FD10BC5DF814FB880200240FB41CB558
:10050000074B06AA7B4469460090059800F0F7FC6B
:100510000020694600F006FD1CBC5DF814FB0000DD
:100520001D0A000070B50C460546012A05D0287842
:10053000800600D5EA69002302E0012305E05B1C88
:10054000934202D2E05C0028F9D1A869E618C01AEB
:10055000A861286A184428622846AFF3008004E0A6
:10056000D5E9012114F8010B9047B442F8D328468D
:10057000AFF3008070BD00002DE9F0410646002475
:1005800010687529314616A510D0AFF300800028F9
:1005900002DA404213A507E031688A0701D512A5A7
:1005A00002E0490704D511A5012401E0AFF3008062
:1005B00000210A2206F1240709E0B0FBF2FCB0FB9F
:1005C000F2F302FB1C00303078541846491C002816
:1005D000F3D123462A463046BDE8F04100F022BA66
:1005E000000000002D0000002B0000002000000093
:1005F00070B504460D4621461068AFF3008021888F
:10060000090502D50F4A7A4402E00E4A7A440E32B6
:10061000002104F1240305E000F00F060009965DB7
:100620005E54491C0028F7D120780023000704D528
:10063000702D02D009B1022311322046BDE870406E
:1006400000F0F0B9945C03002DE9F05F89460446A0
:100650004FF0000ADFF824B1FB44C0F820A0204688
:10066000E168884700287DD0252806D0D4E90121FB
:100670009047206A401C2062F1E700255F46204633
:10068000E16888472028064607DB312E05D2B819D5
:1006900010F8200C08B10543F1E7A80701D525F0B3
:1006A0000405C4F81CA00027C4F818A02A2E09D0FD
:1006B000304635F0C7FD38B304EB8708303EC8F844
:1006C000186019E059F8041B204604EB8702916179
:1006D000E1688847012F064618D1E069002820DA32
:1006E00025F020051DE0D8F8180000EB800006EB8F
:1006F00040003038C8F818002046E16888470646B0
:1007000035F0A0FD0028EED1012F0AD02E2E08D101
:100710002046E16888477F1C0646022F45F02005E9
:10072000C4DBA069002803DA404245F00105A0615E
:10073000E80701D025F01005A6B1A6F1410019285F
:1007400002D8203645F400654A46314620462560E9
:100750004D46FFF7FBFD60B1012807D0ED1D25F0E8
:10076000070000E007E000F1080978E705F1040957
:1007700075E730467AE7206ABDE8F09F6A5C0300BF
:1007800040EA010310B59B070FD1042A0DD310C80E
:1007900008C9121F9C42F8D020BA19BA884201D960
:1007A000012010BD4FF0FF3010BD1AB1D30703D0A8
:1007B000521C07E0002010BD10F8013B11F8014B5E
:1007C0001B1B07D110F8013B11F8014B1B1B01D17A
:1007D000921EF1D1184610BD40EA0103024630B521
:1007E0009B0710D14FF0013400E008C208C91D1B5F
:1007F0009D4315EAC41FF8D013F0FF0102F8011B56
:100800000DD01B0AF8E711F8013B002B02F8013B61
:1008100005D011F8013B002B02F8013BF3D130BDAC
:1008200010B5431C02E010F8011B71B18107FAD129
:100830004FF0013202C88C1A8C4314EAC211F9D06D
:10084000C01A0A0603D0C01E10BDC01A10BD0A048B
:1008500001D0801E10BD0902FCD0401E10BD032A2D
:1008600040F2308010F0030C00F0158011F8013BCD
:10087000BCF1020F624498BF11F801CB00F8013BB4
:1008800038BF11F8013BA2F1040298BF00F801CB78
:1008900038BF00F8013B11F0030300F07183083A00
:1008A000C0F0088051F8043B083A51F804CBA0E8A6
:1008B0000810F5E7121D5CBF51F8043B40F8043BFB
:1008C000AFF30080D20724BF11F8013B11F801CB30
:1008D00048BF11F8012B24BF00F8013B00F801CB01
:1008E00048BF00F8012B704702F0FF0343EA0322E0
:1008F00042EA024200F00AB802F0FF0343EA032290
:1009000042EA024200F024B84FF000020429C0F08D
:10091000128010F0030C00F01B80CCF1040CBCF131
:10092000020F18BF00F8012BA8BF20F8022BA1EB83
:100930000C0100F00DB85FEAC17C24BF00F8012B68
:1009400000F8012B48BF00F8012B70474FF0000260
:1009500000B5134694469646203922BFA0E80C50B5
:10096000A0E80C50B1F12001BFF4F7AF090728BF90
:10097000A0E80C5048BF0CC05DF804EB890028BF0C
:1009800040F8042B08BF704748BF20F8022B11F035
:10099000804F18BF00F8012B7047000000000000D6
:1009A00030B44FF0013C50F8042BCCFA52F451F81B
:1009B000043BD51A20D1FCB950F8042BCCFA52F4E0
:1009C00051F8043BD51A17D1B4B950F8042BCCFA1E
:1009D00052F451F8043BD51A0ED16CB950F8042BDF
:1009E000CCFA52F451F8043BD51A05D1002CDAD0D8
:1009F00030BC4FF00000704729BAB1FA81F111F014
:100A00001801D1F120008440F2D1CA40CB4012F04D
:100A1000FF0213F0FF0330BCD01A704770477047D5
:100A2000704770472DE9F0470D46994692460446B7
:100A300000F124080168880604D5E06921F010015E
:100A4000216000E00120A84201DD471B00E00027F3
:100A5000A1697A1902EB0900081AA0612078C00682
:100A600002D42046AFF30080002608E0D4E901213B
:100A70001AF806009047206A401C761C20624E45FA
:100A8000F4DB2078C0060AD52046AFF3008006E0EC
:100A9000D4E9012130209047206A401C2062381E92
:100AA000A7F10107F4DC07E0D4E9012118F80500FB
:100AB0009047206A401C2062281EA5F10105F3DC46
:100AC0002046AFF300802078000602D50220BDE862
:100AD000F0870120FBE72DE9FF4F0C461E464FF043
:100AE000FF378BB0D2E90001DDF860800A908A46BA
:100AF000C1F30A5505B93D46002108464FF00000F4
:100B0000BAF1000F00F4400005DA00EB80004FF46A
:100B1000400101EA50004FEA9059B9F1010F00DDA0
:100B2000B9460A9850EA4A000ED044F61050A5F291
:100B3000FF3545432F14B8F1000F1ED07542291E12
:100B40001EDDC9F100021CE0B8F1010F4FF00000FA
:100B500001D0302103E0F24305E02154401CB042B3
:100B6000FBDB30460022002121540B99C1F808809C
:100B7000C1E900200FB0BDE8F08FBD1B6D1CDEE7A2
:100B80004A4600DA694206A800F0B6FA06AB93E8D6
:100B9000070003AB83E8070050460A9934F072FF60
:100BA0008DE80700A0F500501F3800900398002D35
:100BB0000ADD42F21F014A460844002303A90390BC
:100BC000684635F0DBF909E0A0F500504A461F38C9
:100BD000002303A90390684635F0E5F98DE8070086
:100BE0000004000C03D04FF0FF30410800E0104635
:100BF000B8F1000F03D00022009215461EE0751ECA
:100C000005D400F0F3F9303262556D1EF9D5B346C4
:100C10000122084302D000227F1C04E02078302803
:100C200001D100227F1E002A099784D01DE0112DDA
:100C300007DA00F0DBF9303262556D1C50EA010230
:100C4000F5D1084302D00098C8B10EE00021681E1B
:100C500005E0235C625C63542254401E491C8142BF
:100C6000F7DBAB46A81B401E0990002004F80B00E0
:100C70000B98099AC0F80880C0E9002B7AE7112682
:100C80004FF0000857E72DE9F04F88460446D21D83
:100C900022F0070191B0D1E90001CDE90A0135F058
:100CA000B9FA02460B98C00F01D02D2007E020684A
:100CB000810701D52B2002E0202101EAC000032A90
:100CC000099001D0072A05DB03464146204600F083
:100CD000D3F90BE12078800601D5E06900E0062019
:100CE000B8F1650F814606D0B8F1660F18D0B8F19B
:100CF000670F70D131E00020B9F1110F009001DBD6
:100D0000112301E009F101030AAA01A90CA8FFF7C8
:100D1000E2FEDDE90C70002609F10105834647E09B
:100D200001204B4600904FF000470AAA01A90CA8E9
:100D3000FFF7D1FEDDE90DB00C995D46002610B934
:100D400009F101000D18B9EB050003D4C0F1FF361D
:100D500009F10105A5EB09002BE0B9F1010F01DA5A
:100D60004FF001090020B9F1110F0090484601DD54
:100D7000112300E003460AAA01A90CA8FFF7ABFE65
:100D8000DDE90C704D4600268346207800070AD422
:100D9000AB4500DA5D4601A8012D04DD411911F8CB
:100DA000011C302907D04F4502DA17F1040F04DA8D
:100DB000012082460FE06D1EEEE7002F02DCED1BE6
:100DC0003E4403E0781CA84200DD7D1CB81B00F106
:100DD000010A4FF000472078000703D4AA4501DB41
:100DE0004FF0FF3A0021B7F1004F0DF143088DF8A5
:100DF000431024D002202B23002F01DA7F422D2321
:100E00000A21021EA0F1010000DC5FB197FBF1FC9A
:100E100097FBF1F201FB1C7C17460CF1300C08F833
:100E200001CDEEE7A8F1010003702188090501D585
:100E3000452100E06521A0F1010800F8011C099896
:100E40000FA9A1EB0807FF1D00B10120411901EB1B
:100E5000EA70A1693844081A401EA0612078C006D3
:100E600002D42046AFF30080099828B1D4E90121CB
:100E70009047206A401C20622078C00622D5204678
:100E8000AFF300801EE0002E04DBB34502DD01A8B5
:100E9000805D00E03020D4E901219047206A401CA9
:100EA0002062761CAAF101005FEA000A0AD100F074
:100EB00099F8C0680168405CD4E901219047206A34
:100EC000401C2062281EA5F10105DCDC07E0D4E906
:100ED000012118F8010B9047206A401C2062381E3F
:100EE000A7F10107F3DC2046AFF30080032011B027
:100EF00041E6000001694A1C02610878704700B5AC
:100F00008FB0CDE901310021059105497944CDE942
:100F1000031011466846FFF797FB0FB000BD0000B5
:100F2000E5FFFFFF0A6802F8010B0A60704710B581
:100F3000436913B1AFF3008001E0FFF7F3FA01203A
:100F400010BD127800F124010A7000224A700122BB
:100F5000EDE711684FF0FF32E9E70000074B70B58D
:100F60000D467B44FFF7CBFF0446284600F036F9D8
:100F700010B14FF0FF3070BD204670BD93310100BD
:100F800010B5203AC0F00B80B1E81850A0E8185016
:100F9000B1E81850A0E81850203ABFF4F5AF5FEA66
:100FA000027C24BFB1E81850A0E8185044BF18C90B
:100FB00018C0BDE810405FEA827C24BF51F8043BB2
:100FC00040F8043B08BF7047D20728BF31F8023B06
:100FD00048BF11F8012B28BF20F8023B48BF00F89A
:100FE000012B7047004870472002002430B5B0F153
:100FF0000A0271F100034FEA900E4EEA817EB0EBD7
:101000000E0061EB91014FEA101E4EEA017E10EBDB
:101010000E0041EB11114FEA102E4EEA016E10EB5B
:101020000E0041EB11214FEA104E4EEA014E10EB3B
:101030000E0041EB1141401841F100014FEAD00090
:1010400040EA41704FEAD1014FEA810444EA9074CA
:1010500010EB800544EB01046D1944EB0404521BB2
:10106000A3414FF0000348BF0A3200D530BD401CF9
:1010700041F1000130BD00002DE9F0411F4604465A
:1010800003260168072A01F4006004DB08B116A5F5
:1010900005E016A503E008B115A500E015A521F0AF
:1010A00010002060A069C01EA0610FB1401EA061A9
:1010B0002046AFF300804FB1D4E901213846904774
:1010C000206A401C2062C01C206206E0206AFAE709
:1010D000D4E9012115F8010B9047761EF8D220467D
:1010E000AFF30080BDE8F0814E414E006E616E00AE
:1010F000494E4600696E66002DE9F0478146164666
:101100008AB0354878440DC88DE80D0032487844DF
:10111000801C03AC0DC884E80D0041F69B300844E8
:10112000372190FBF1F290FBF1F5A5F1800501FB71
:1011300012041B3C02D56442012000E00020DFF8CD
:1011400098A080460027FA44AAF1BE0A0EE0E00704
:101150000AD03246684607EB470101230AEB8101BA
:1011600034F021FF8DE8070064107F1C002CEED1C5
:10117000194F7F44AE3F19E0E80715D007EB041084
:101180000DF1180A90E80E008AE80E00C068F042DF
:1011900001D1981908903246012306A903A834F01A
:1011A00002FF03AB83E807006D10641C002DE3D140
:1011B0004FF0010332466946B8F1000F03A802D090
:1011C00034F0DCFE01E034F0EEFEC9E90001C9F8BC
:1011D00008200AB0BDE8F0874C520300007B00F005
:1011E0008000704700487047000200247546FFF7F2
:1011F000F9FFAE4605006946534620F007008546D4
:1012000018B020B5FFF7E2F8BDE820404FF0000627
:101210004FF000074FF000084FF0000BAC46ACE871
:10122000C009ACE8C009ACE8C009ACE8C00921F0CD
:1012300007018D46704710B50446AFF30080204685
:10124000BDE81040FFF7A7B8FEE70000000000006F
:101250007047000000000000B0B5B3F5804F0346B2
:1012600015D1002053F822C0CCF6F0708D680CEA3E
:10127000000C8C69D1E9000E40EA0C00C96840EA14
:101280000E1040EA0520204340EA014101E06FF0E2
:101290007041002043F82210B0BD000000000000A3
:1012A000B0B50A6850F8223023F0010340F822302C
:1012B000D1E900EC8B684CEA0302082BD1F80CC092
:1012C00008BF42F04002D1E9043442EA0C02D1F8EE
:1012D00018C01A43CB6922430C6A42EA0C02D1F8C7
:1012E00024C01A438B6A2243CC6A42EA0C02D1F82A
:1012F00030C01A434D6B22438C6B42EA0C0250F80B
:101300002E302A4340F28045CFF6C07522432B4051
:101310001A4340F82E200A6BB2F5801F06D10B68E5
:1013200023B1036823F480131A4302600A681AB1D8
:10133000496B0268114301600020B0BD000000004D
:10134000F0B500EB820340F2000CCFF6F07C5A6857
:101350008E6802F0404E0D69D1E9002742EA0E0284
:10136000CC6842EA07124F6942EA06228E690CEB0A
:101370000555FE3742EA04422A43324342EA0762F5
:101380005A600268D2020BD54268096922F47002E1
:1013900043680CEB0151114323F470021143416087
:1013A0000020F0BD0000000070B50A68002A024667
:1013B00000681CD020F4F84001F1080CD1E9073690
:1013C00018434B6A304301F10C0E1843106052F879
:1013D000040F47F6FF7320EA03054E6801F1100081
:1013E00001F1140301F1180445EA060113E00E1D92
:1013F00047F6FF73984301F1140C78CE034301F1D3
:10140000180E1C4301F11C00254301F1200301F1DA
:10141000240445EA0601DCF80060DEF800503143A0
:10142000006829431B680843246840EA0301002040
:101430002143116070BD00000246406943F6FE730F
:1014400020EA0303002043EA410151617047000094
:1014500010B5024600696FF315006FF01F04D1E963
:1014600000ECD1E9023140EA0E0004EB431340EAFC
:101470000C000343002043EA4121116110BD00002C
:101480002DE9F043002A024652F8083F2ED040F6DC
:10149000FF724FF20006CFF60F72CFF6FF761A40BA
:1014A000CB684F6906EB03330026CFF6F0761A437C
:1014B00006EB07573A43826050F80C2F8E68D1E94B
:1014C00000375D1E6FF00F0303EB071C6FF0FF0387
:1014D0000C6903EB062E002302F07042CFF6FF7377
:1014E00003EB044345EA0204024624E001F1080943
:1014F00003F07048D1E9003499E861026FF00F07FA
:10150000013B07EB04146FF0FF0707EB00204FF2DD
:101510000007CFF6FF7743EA080307EB053C0027F7
:101520000025CFF6FF77CFF6F0751C4307EB064E8C
:10153000044305EB0953886944EA0C01471E41EA5C
:101540000E0040EA0301002041EA07611160BDE896
:10155000F0830000000000002DE9F041044600F097
:1015600027FD04B3054694F8350002281ED140F249
:101570000F472068C4F2020740F26F48B842C4F235
:10158000020817DC6F21C4F20201884223DC3F21EC
:10159000C4F20201884239DC1021C4F202018842FF
:1015A00058D0282151E00120BDE8F08180206065FD
:1015B0000120ABE240451ADC40F23F41C4F2020197
:1015C00088422ADC40F21041C4F20201884241D034
:1015D00040F2284139E09F21C4F20201884225DC13
:1015E0007021C4F20201884234D088212DE040F2FB
:1015F0009F41C4F2020188421FDC40F27041C4F2F4
:101600000201884226D040F288411EE04021C4F207
:10161000020188421ED0582117E040F24041C4F236
:101620000201884216D040F258410EE0A021C4F2D7
:10163000020188420ED0B82107E040F2B841C4F25E
:101640000201884206D040F2A041C4F20201884261
:1016500040F0EA812668316821F01E02314641F8E7
:10166000142B6FF080020B68404502EA03020A6007
:1016700019DC9F21C4F20201884231DC5721C4F2F7
:101680000201884256DC1021C4F20201884200F0B7
:1016900091802821C4F20201884200F08B80402111
:1016A000C4F2020184E045F22F41C5F602018842EE
:1016B0002BDC40F2B741C4F20201884248DC40F220
:1016C0007041C4F20201884274D040F28841C4F2F1
:1016D000020188426ED040F2A041C4F2020167E0EC
:1016E00040F22741C4F20201884240DCA021C4F24A
:1016F000020188425ED0B821C4F20201884259D06A
:1017000040F21041C4F2020152E045F26B41C5F6CD
:10171000020188423CDC45F23041C5F602018842B4
:1017200048D045F24441C5F60201884242D045F214
:1017300058413BE05821C4F2020188423AD070215E
:10174000C4F20201884235D08821C4F202012FE0A0
:1017500040F2B841C4F2020188422BD045F2084160
:10176000C5F60201884225D045F21C411EE040F238
:101770002841C4F2020188421CD040F24041C4F228
:101780000201884216D040F25841C4F202010FE033
:1017900045F26C41C5F6020188420BD045F29441F6
:1017A000C5F60201884205D045F28041C5F6020126
:1017B000884269D1216EB8420A6822F480720A60B8
:1017C00010DC6F21C4F2020188421CDC3F21C4F20C
:1017D0000201884232DC1021C4F20201884252D058
:1017E00028214AE040451ADC40F23F41C4F20201A0
:1017F00088422ADC40F21041C4F20201884242D001
:1018000040F2284139E09F21C4F20201884225DCE0
:101810007021C4F20201884235D088212DE040F2C7
:101820009F41C4F2020188421FDC40F27041C4F2C1
:101830000201884227D040F288411EE04021C4F2D4
:10184000020188421FD0582117E040F24041C4F203
:101850000201884217D040F258410EE0A021C4F2A4
:10186000020188420FD0B82107E040F2B841C4F22B
:101870000201884207D040F2A041C4F2020188422E
:1018800008BF206800E02068016821F001010160C4
:101890003068C0070BD000F08BFB401B0628F7D345
:1018A00020206065032084F8350001202EE12068A7
:1018B000B84210DC6F21C4F2020188421CDC3F21D7
:1018C000C4F20201884232DC1021C4F202018842D3
:1018D00050D028214AE040451ADC40F23F41C4F292
:1018E000020188422ADC40F21041C4F2020188421F
:1018F00040D040F2284139E09F21C4F202018842E1
:1019000025DC7021C4F20201884233D088212DE009
:1019100040F29F41C4F2020188421FDC40F2704154
:10192000C4F20201884225D040F288411EE04021E5
:10193000C4F2020188421DD0582117E040F2404114
:10194000C4F20201884215D040F258410EE0A021B5
:10195000C4F2020188420DD0B82107E040F2B8413C
:10196000C4F20201884205D040F2A041C4F2020153
:1019700088425ED1D4E9161202F01F023F2303FA17
:1019800002F28A6040455EDC9F21C4F20201884277
:1019900014DC5721C4F20201884226DC1021C4F273
:1019A0000201884200F0A2802821C4F2020188428C
:1019B00000F09C804021C4F2020195E040F22741F2
:1019C000C4F2020188421EDCA021C4F20201884256
:1019D00000F08C80B821C4F20201884200F08680B9
:1019E00040F21041C4F202017EE05821C4F202012B
:1019F00088427BD07021C4F20201884276D08821CF
:101A0000C4F2020170E040F22841C4F202018842AF
:101A10006CD040F24041C4F20201884266D040F2EC
:101A20005841C4F202015FE021686FF00E020E46D9
:101A300019E6D4E9161202F01F02012303FA02F29A
:101A40004A604045A0DD45F22F41C5F602018842BB
:101A500016DC40F2B741C4F20201884225DC40F2B4
:101A60007041C4F20201884240D040F28841C4F281
:101A7000020188423AD040F2A041C4F2020133E0B0
:101A800045F26B41C5F6020188421DDC45F230414A
:101A9000C5F60201884229D045F24441C5F602014B
:101AA000884223D045F258411CE040F2B841C4F2CC
:101AB000020188421AD045F20841C5F60201884267
:101AC00014D045F21C410DE045F26C41C5F602010F
:101AD00088420BD045F29441C5F60201884205D0F8
:101AE00045F28041C5F6020188420BD1616EA26EBB
:101AF000E06E4A6030B1016821F480710160D4E980
:101B00001C014160012084F835000020002184F888
:101B10003410BDE8F081000080B5D8B190F83510E0
:101B2000022919D140F20F420168C4F20202914227
:101B300016DC6F23C4F20203994226DC3F23C4F271
:101B4000020399423CDC1023C4F2020399425AD0AA
:101B5000282354E0012080BD80214165012080BD03
:101B600040F26F43C4F2020399421ADC40F23F4351
:101B7000C4F2020399422ADC40F21043C4F2020389
:101B8000994240D040F2284339E09F23C4F2020337
:101B9000994225DC7023C4F20203994233D0882392
:101BA0002DE040F29F43C4F2020399421FDC40F251
:101BB0007043C4F20203994225D040F288431EE0EC
:101BC0004023C4F2020399421DD0582317E040F28B
:101BD0004043C4F20203994215D040F258430EE04C
:101BE000A023C4F2020399420DD0B82307E040F2CB
:101BF000B843C4F20203994205D040F2A043C4F2B4
:101C00000203994270D191424FF0040280F83520CE
:101C100010DC6F22C4F20202914220DC3F22C4F2A7
:101C20000202914236DC1022C4F20202914254D0E8
:101C300028224EE040F26F42C4F2020291421ADCC6
:101C400040F23F42C4F2020291422ADC40F21042CA
:101C5000C4F20202914240D040F2284239E09F2271
:101C6000C4F20202914225DC7022C4F202029142C7
:101C700033D088222DE040F29F42C4F2020291420A
:101C80001FDC40F27042C4F20202914225D040F2C1
:101C900088421EE04022C4F2020291421DD0582226
:101CA00017E040F24042C4F20202914215D040F2E5
:101CB00058420EE0A022C4F2020291420DD0B82296
:101CC00007E040F2B842C4F20202914205D040F26D
:101CD000A042C4F20202914224D10068016821F0BE
:101CE00001010160002080BD0268136823F00E032B
:101CF000136045F25742C5F6020291420A6822F08B
:101D000001020A6014DC45F22F42C5F6020291423C
:101D10001DDC45F20842C5F6020291422CD045F284
:101D20001C4225E0086820F001000860002080BD0A
:101D300045F27F42C5F60202914211DC45F258425B
:101D4000C5F60202914217D045F26C4210E045F20E
:101D50003042C5F6020291420ED045F2444207E0FD
:101D600045F29442C5F60202914205D045F2804206
:101D7000C5F6020291421AD1D0E9181CD0E916E347
:101D80000A6822F480720A6003F01F01012202FA3D
:101D900001F1CEF80410816ECCF80410C16E31B19F
:101DA0000A6822F480720A60D0E91C124A6001219C
:101DB00080F83510026D002180F834100AB1904788
:101DC0000021084680BD000040F22040C5F600001A
:101DD000016841F00101016070470000000000004F
:101DE0002DE9F04F83B00C68002C00F0C68000F1A4
:101DF000264242F2004702F1FF72C5F602074FEA9F
:101E0000B22201920A22B84208BF09220025002707
:101E10004FF0010A009209E00C68043734FA0AF224
:101E20000AF1010A05F1020500F0A780AAF10109F3
:101E3000012202FA09FE14EA0E08EDD0D1F804B02E
:101E40000BF00304A4F1010CBCF1010F11D8032223
:101E50008668AA40CB6826EA0202AB401A43826039
:101E6000CBF30013426822EA0E0203FA09F31A4385
:101E70004260032C1ED00323C268AB40022C22EA2E
:101E800003028B6803FA05F342EA0302C26011D130
:101E90006FF0030207F01C0602EA59020F23024406
:101EA00003FA06F4D2F820C00B692CEA0404B3400C
:101EB0002343136203230268AB404E689A4306F043
:101EC0000303AB4016F4403F42EA03020260A3D092
:101ED00044F2F44340F2084EC5F60203C5F6000E84
:101EE0001A6842F002021A601A6807F00C0302F046
:101EF00002020292029A29F00302019C009E092C20
:101F000038BF26460F2452F80EC09C402CEA040429
:101F100006FA03F34FF0B04C234342F80E30DCF8DE
:101F200000204B6842EA0806DC0258BF22EA080695
:101F30009C02CCF8006040F2040CC5F6000CDCF802
:101F4000002042EA080658BF22EA08069C03CCF8A3
:101F50000060DCF8802042EA080658BF22EA080642
:101F6000DB03CCF88060DCF87C2042EA080658BF2E
:101F700022EA0806CCF87C604EE703B0BDE8F08F9B
:101F80000069084018BF01207047000000000000F1
:101F9000002A08BF090481617047000000000000AA
:101FA00041F20000C5F600400068000C70470000D8
:101FB00044F2AC20C2F2024000687047000000000A
:101FC00040F2F41044F2AC21C2F20040C2F20241ED
:101FD00000780A68104408607047000000000000A4
:101FE00080B5052000F05CFA01F0D2F944F2184106
:101FF00046F26C33C5F60201C0F603030A680968AD
:1020000001F00F01C2F30322595C9A5C01F01F0139
:1020100002F01F02D04040F20802C2F2004220FA51
:1020200001F1116040F20401C2F2004108600F208A
:1020300000F00AF800281CBF012080BD00F018FA4B
:10204000002080BD00000000B0B540F2F411C2F2E3
:102050000041097801B3044640F20400C2F2004096
:102060004FF47A72B2FBF1F10068B0FBF1F001F0CD
:1020700077FE0F2C4FF001050CD858B94FF0FF3008
:1020800000222146002500F0FBF940F2F810C2F2D0
:10209000004004602846B0BD0120B0BD0000000033
:1020A0002DE9F041044690F8A00001284FF002000D
:1020B00008BFBDE8F08134234FF0010884F8A08008
:1020C00084F8A10002FB0340D1E900CED1E9026708
:1020D000D1E90435C0E91235C0E91067C0E90ECE78
:1020E000D1E906CED1E90865D1E90A37C0E9183748
:1020F000C0E91665C0E914CE0B6B8366204602F07A
:10210000DBFA2068C0F82480002084F8A18084F8DD
:10211000A000BDE8F0810000002869D010B5044699
:1021200090F8A10028B9002084F8A000204600F013
:1021300063F8022084F8A100D4E9000CD4E902235A
:10214000816921F07041816142EA0C0122691943E1
:1021500011438269114381614FF600028168CFF219
:10216000000211408160D4E9051343EA014183680C
:1021700019438160C1681140C160D4E9071343EA83
:102180000141C3681943C160016911400161D4E98B
:10219000091343EA0141036919430161416911408F
:1021A0004161D4E90B1242EA0141426911434161A4
:1021B00094F8351094F83620C36A03F07F43C36265
:1021C000120494F8343042EA0121C26A19441143DE
:1021D000C162416B41F006014163816941F0010137
:1021E00081610020C4F8A400012184F8A11010BD71
:1021F0000120704700000000F0B585B044F2E040D7
:1022000042F20004C5F60200C5F602046D4603263C
:10221000416841F008014160416801F00801009106
:10222000009950F80C1C41F0100140F80C1C50F8BB
:102230000C1C01F0100100910099016841F00201AD
:102240000160016801F0020100910099016841F00C
:1022500020010160016801F02001009100990168EE
:1022600041F480710160016801F48071009100996E
:10227000016841F480710160016801F4807100918E
:102280000099016841F040010160016801F04001DE
:1022900000910099016841F08001016000682946C1
:1022A00000F0800000900098202000900120CDE9EF
:1022B0000100A4F5E0500396FFF792FD0220019083
:1022C00000202946CDE902060E200490A4F54060C6
:1022D0004FF480670097FFF783FD4FF40070009084
:1022E00020462946FFF77CFD204629460097FFF748
:1022F00077FDA4F500668020009030462946FFF760
:102300006FFD4FF40460009030462946FFF768FDEA
:102310004FF47E400090A4F580602946FFF760FDF1
:10232000F720009020462946FFF75AFD05B0F0BD82
:1023300070B5054690F8A00001284FF0020008BFD4
:1023400070BD3424012603FB045485F8A06085F891
:10235000A10044F8381FA06AA26008446060E06AE7
:1023600021461044E06028461A4602F0A5F9286884
:102370004662002085F8A16085F8A00070BD0000CD
:1023800070B5054690F8A00001284FF0020008BF84
:1023900070BD3424012603FB045485F8A06085F841
:1023A000A10054F8380F08446060A0681044E06051
:1023B000C4E90A12284621461A4602F07DF9286827
:1023C0004662002085F8A16085F8A00070BD00007D
:1023D000B0B502784EF69C5CCEF2000C43784CF817
:1023E000043CF2B14368CCF80030037BC17A90F82A
:1023F0000AE0457B447A42EA0372837B42EA016148
:10240000C27B41EACE41007A41EA854141EA43413B
:1024100041EA024141EA042141EA4000CCF80400CB
:10242000B0BD0020CCF80000CCF80400B0BD000026
:102430004EF62450CEF20000BFF35F8F016821F406
:10244000803101600021016770470000000000003A
:102450004EF6245140F00100CEF2000108670868F2
:1024600040F480300860BFF34F8FBFF36F8F704729
:10247000704700000000000080B503F055FB80BDF0
:1024800070B514460D46064603F05EFB294622460B
:1024900002F0BAF90146304603F05EFB70BD000061
:1024A00080B503F06DFB80BD44F60C00C5F602005C
:1024B000016841F080710160704700000000000079
:1024C00080B500F015FF44F2204146F26C32C5F6AB
:1024D0000201C0F603020968C1F30211515C01F068
:1024E0001F01C84080BD000080B544F2384EC5F6DB
:1024F000020E5EF8103C5EF8101CC1F3053C5EF85D
:102500000C1CBCF1000FDEF8042014D0C1F3001144
:10251000C2F3CC02514300EE101A03F0030102296A
:10252000B8EE400A0CD071B95EF8381C89060DD49B
:102530009FED341A18E000218160C0E9001180BDD0
:102540009FED2F1A10E09FED2D1A0DE05EF8381C5C
:1025500049F20002C0F2D032C1F3C10122FA01F106
:1025600001EE101AB8EE411ADEF800109FED263A7F
:102570006FF35F2102EE101ADEF80010C1F346215E
:10258000B8EE422A00EE032A00EE10CAB7EE003A77
:10259000B8EE400A81EE000A32EE031A02EE101A7B
:1025A000B8EE422A20EE010A32EE031A80EE011A3A
:1025B000BCEEC11A80ED001ADEF80010C1F306412E
:1025C00001EE101AB8EE411A31EE031A80EE011A2C
:1025D000BCEEC11A80ED011ADEF80010C1F30661ED
:1025E00001EE101AB8EE411A31EE031A80EE010A1C
:1025F000BCEEC00A10EE101A816080BD0024744A3F
:1026000020BCBE4B0024744C0000003900000000C8
:1026100080B544F2404EC5F6020E5EF8183C5EF8F6
:10262000181CC1F3055C5EF8141CBCF1000FDEF849
:10263000042014D0C1F30021C2F3CC02514300EEB8
:10264000101A03F003010229B8EE400A0CD071B948
:102650005EF8401C89060DD49FED341A18E0002165
:102660008160C0E9001180BD9FED2F1A10E09FED41
:102670002D1A0DE05EF8401C49F20002C0F2D03283
:10268000C1F3C10122FA01F101EE101AB8EE411AAC
:10269000DEF800109FED263A6FF35F2102EE101A6C
:1026A000DEF80010C1F34621B8EE422A00EE032AFC
:1026B00000EE10CAB7EE003AB8EE400A81EE000A0A
:1026C00032EE031A02EE101AB8EE422A20EE010A88
:1026D00032EE031A80EE011ABCEEC11A80ED001A28
:1026E000DEF80010C1F3064101EE101AB8EE411AEF
:1026F00031EE031A80EE011ABCEEC11A80ED011A08
:10270000DEF80010C1F3066101EE101AB8EE411AAE
:1027100031EE031A80EE010ABCEEC00A10EE101A68
:10272000816080BD0024744A20BCBE4B0024744CE0
:1027300000000039000000002DE9F04381B004469C
:10274000C07844F22C490007C5F6020901D40026DE
:102750002DE0606E4FEA305003280DD80026DFE8E8
:1027600000F0020E1613D9F80000002640F40030E5
:10277000C9F800004EB912E0012636B90FE0201D5D
:10278000022102F05DF806464EB1B04611E004F1B8
:102790002400022102F0E4F80646002EF5D1D9F813
:1027A0002400616E20F440100843C9F824004FF063
:1027B00000086078C0072FD0606D042807D8DFE8D4
:1027C00000F00A131B030300F6B1B04624E0012613
:1027D000002EFAD118E0D9F8000040F40030C9F812
:1027E0000000002EF1D10FE0201D002102F028F89A
:1027F0000646002EE9D107E004F12400002102F092
:10280000AFF80646002EE0D1D9F82400616D20F023
:1028100007000843C9F824006078800731D5A06D0F
:102820004FEAB010042807D8DFE800F00A131B03B2
:102830000300F6B1B04624E00126002EFAD118E0DC
:10284000D9F8000040F40030C9F80000002EF1D1A2
:102850000FE0201D002101F0F3FF0646002EE9D114
:1028600007E004F12400002102F07AF80646002E69
:10287000E0D1D9F82400A16D20F4E0700843C9F834
:1028800024006078400733D5D4F8A4004FEA705094
:10289000042807D8DFE800F00A131B030300F6B191
:1028A000B04625E00126002EFAD118E0D9F8000044
:1028B00040F40030C9F80000002EF1D10FE0201DD7
:1028C000002101F0BDFF0646002EE9D107E004F12A
:1028D0002400002102F044F80646002EE0D1D9F889
:1028E0002C00D4F8A41020F460000843C9F82C0090
:1028F0006078000733D5D4F8A8004FEA3060042888
:1029000007D8DFE800F00A131B030300F6B1B04656
:1029100025E00126002EFAD118E0D9F8000040F495
:102920000030C9F80000002EF1D10FE0201D002179
:1029300001F086FF0646002EE9D107E004F12400ED
:10294000002102F00DF80646002EE0D1D9F82C0047
:10295000D4F8A81020F0E0600843C9F82C00E07813
:10296000800727D5A06C4FEA3010032806D8DFE88F
:1029700000F002091202AEB1B0461BE00126002EA3
:10298000FAD10FE0D9F8000040F40030C9F8000097
:10299000002EF1D106E0201D022101F051FF064674
:1029A000002EE9D1D9F82000A16C20F030000843B6
:1029B000C9F820006078C00631D5E06D4FEA3030AC
:1029C000042807D8DFE800F00A131B030300F6B160
:1029D000B04624E00126002EFAD118E0D9F8000014
:1029E00040F40030C9F80000002EF1D10FE0201DA6
:1029F000002101F025FF0646002EE9D107E004F191
:102A00002400002101F0ACFF0646002EE0D1D9F8E9
:102A10002400E16D20F4E0400843C9F82400607808
:102A2000800625D5206E4FEA3040052807D8DFE81C
:102A300000F0030A0F03030396B1B04618E0012625
:102A4000002EFAD10CE0201D012101F0F9FE04E076
:102A500004F12400012101F083FF0646002EECD191
:102A6000D9F82400216E20F4E0200843C9F824009E
:102A70006078400627D5D4F8AC004FEA30700528BE
:102A800007D8DFE800F0030A0F03030396B1B0464E
:102A900019E00126002EFAD10CE0201D012101F0E1
:102AA000CFFE04E004F12400012101F059FF0646A5
:102AB000002EECD1D9F82C00D4F8AC1020F0E04076
:102AC0000843C9F82C00607800061FD5E06ED0B12D
:102AD000B0F1005F12D0B0F1805F24D1D9F80000CE
:102AE00040F40030C9F800007EB9D9F82400E16E46
:102AF00020F040500843C9F8240007E0201D0121C0
:102B000001F09EFE0646002EEFD0B046E078C007EA
:102B100029D0606C03280AD8DFE800F0020D160205
:102B2000CEB1B0461FE00126002EEED1DDE7012632
:102B3000002EF6D10FE0D9F8000040F40030C9F8BB
:102B40000000002EEDD106E0201D022101F078FEEC
:102B50000646002EE5D1D9F82000616C20F0030074
:102B60000843C9F82000A078400643D5D9F8D4031B
:102B700040F48070C9F8D403FFF71AFA074600BF83
:102B8000D9F8D403C00505D4FFF712FAC01B652895
:102B9000F6D303266EBBD9F84410D4F8B0004140F8
:102BA00011F4407F11D0D9F84410D9F8442042F4F0
:102BB0008032C9F84420D9F8442021F4407122F42D
:102BC0008032C9F84420C9F84410B0F5807F0FD195
:102BD000FFF7EEF9074641F2893500BFD9F8440006
:102BE000800705D4FFF7E4F9C01BA842F6D30326FB
:102BF00086B1B0462078C00741D0A06F4FEAF00000
:102C0000052823D8DFE800F003262B03030376B35F
:102C1000B04634E04FF6CF73D4F8B00059F81C2C0E
:102C2000C0F2FF0300F4407122F47C5203EA101357
:102C3000B1F5407F08BF1A436FF31F3049F81C2CD1
:102C4000D9F844100843C9F84400D3E70126002E00
:102C5000DED10CE0201D012101F0F2FD04E004F1C1
:102C60002400012101F07CFE0646002ED0D1D9F8C7
:102C70002800A16F20F038000843C9F82800207808
:102C8000800723D5606F052807D8DFE800F0030A26
:102C90000F03030396B1B04618E00126002EFAD1C7
:102CA0000CE0201D012101F0CBFD04E004F1240023
:102CB000012101F055FE0646002EECD1D9F828007E
:102CC000616F20F007000843C9F82800207840070A
:102CD00025D5D4F89000052807D8DFE800F0030ACE
:102CE0000F03030396B1B04619E00126002EFAD176
:102CF0000CE0201D012101F0A3FD04E004F12400FB
:102D0000012101F02DFE0646002EECD1D9F82C0051
:102D1000D4F8901020F007000843C9F82C00207860
:102D2000800627D5D4F88C004FEA3070052807D8E4
:102D3000DFE800F0030A0F03030396B1B04619E081
:102D40000126002EFAD10CE0201D002101F078FDB3
:102D500004E004F12400022101F002FE0646002EE8
:102D6000ECD1D9F82800D4F88C1020F0E0400843CA
:102D7000C9F828002078400627D5D4F898004FEAF3
:102D8000B020052807D8DFE800F0030A0F0303038B
:102D900096B1B04619E00126002EFAD10CE0201DB4
:102DA000002101F04DFD04E004F12400022101F0B6
:102DB000D7FD0646002EECD1D9F82C00D4F8981097
:102DC00020F4E0500843C9F82C002078000627D5ED
:102DD000D4F89C004FEA7030052807D8DFE800F0EF
:102DE000030A0F03030396B1B04619E00126002E33
:102DF000FAD10CE0201D002101F022FD04E004F1D5
:102E00002400022101F0ACFD0646002EECD1D9F8D9
:102E10002C00D4F89C1020F460400843C9F82C0022
:102E20002078000716D5D4F88000B0F5805F08D16F
:102E300004F12400022101F093FD002818BF4FF097
:102E40000108D9F82800D4F8801020F44050084335
:102E5000C9F828002078C00616D5D4F89400B0F53B
:102E6000807F08D104F12400022101F079FD0028BF
:102E700018BF4FF00108D9F82C00D4F8941020F4B2
:102E800040700843C9F82C00A078000721D5D4F879
:102E9000A000B0F5003F19D0B0F5803F10D0C0BB06
:102EA000201D002101F0CCFC06468EB9D9F82C007B
:102EB000D4F8A01020F440300843C9F82C0008E0F2
:102EC00004F12400022101F04BFD0646002EEDD056
:102ED000B046A078400729D5D4F88400B0F5401F4B
:102EE00021D0B0F5001F18D0B0F5801F40F0C18090
:102EF000D9F8000040F40030C9F80000AEB9D9F8A4
:102F00002800D4F8841020F440100843C9F82800A1
:102F10000CE00126002EDBD1C8E704F124000121DA
:102F200001F01EFD0646002EE9D0B046A078C0078D
:102F30001FD0E06CB0F5803F10D0B0B9D9F80000D8
:102F400040F40030C9F8000096B9D9F82000E16CCF
:102F500020F480300843C9F820000AE0201D022137
:102F600001F06EFC06461EB9EFE70126002EECD0FC
:102F7000B046E078800608D504F12400022101F073
:102F8000EFFC002818BF4FF00108206881031ED411
:102F9000C10234D4C1003CD4810245D441004DD497
:102FA000B0F1FF3F5ADD000208D5D9F82800D4F867
:102FB000881020F440000843C9F82800B8F1000F39
:102FC00018BF4FF00108404601B0BDE8F083E16F43
:102FD0006FF0010202EB3122022A0AD34FEA3122BA
:102FE0003AB1012A4AD1D9F8002042F40032C9F896
:102FF0000020002E45D04FF00108C102CAD5D9F8F3
:103000002410226F21F000411143C9F82410C1009F
:10301000C2D559F81C1CD4F8B42021F480411143C6
:1030200049F81C1C8102B9D5D9F82410A26E21F0F0
:1030300080711143C9F824104100B1D559F81C1C06
:1030400021F4004149F81C1CD4F8B81059F81C2C84
:10305000114349F81C1CB0F1FF3FA4DCD9F8201043
:10306000226D21F040511143C9F820100002A5D56E
:103070009BE70126002E7FF458AF40E70126002E83
:10308000B9D1D9F8282022F440721143C9F8281088
:10309000C1027FF57FAFB2E72DE9F04381B0002890
:1030A00000F0F48042F200080446C5F20028894688
:1030B000D8F8000000F00F0088420ED2D8F80000C7
:1030C00020F00F0040EA0900C8F80000D8F800001E
:1030D00000F00F00484540F0D980206844F21847BE
:1030E0004107C5F602070AD521693A6802F0700265
:1030F000914204D93A6822F0700211433960010705
:103100000AD561697A6802F07002914204D97A683E
:1031100022F0700211437960C1060AD5A1697A686C
:1031200002F4E062914204D97A6822F4E062114329
:10313000796081060AD5E169BA6802F070029142AD
:1031400004D9BA6822F070021143B96081070AD528
:10315000E1683A6802F00F02914204D93A6822F01D
:103160000F0211433960C0077ED1206881070AD55C
:10317000E1683A6802F00F02914204D23A6822F004
:103180000F0211433960D8F8001001F00F014945D2
:103190000DD9D8F8001021F00F0141EA0901C8F853
:1031A0000010D8F8001001F00F0149456ED1410719
:1031B0000AD521693A6802F07002914204D23A6855
:1031C00022F070021143396001070AD561697A68FB
:1031D00002F07002914204D27A6822F07002114328
:1031E0007960C1060AD5A1697A6802F4E062914269
:1031F00004D27A6822F4E0621143796080060AD52D
:10320000E069B96801F07001884204D2B96821F020
:1032100070010843B86000F0BBF8396846F26C32C0
:10322000C0F603023B68C1F3032103F00F03515CB6
:10323000D25C01F01F01C84002F01F0140F20802F9
:1032400020FA01F1C2F20042116040F2040140F2A2
:10325000F812C2F20041C2F2004208601068FEF7A4
:10326000F3FE01B0BDE8F083386820F47061D4E962
:103270000102012841EA020139600BD003282BD05A
:1032800002282ED157F8181C890307D4012001B059
:10329000BDE8F08357F8181CC905F7D557F8081C86
:1032A00021F00701084347F8080CFEF781FE0646A7
:1032B00041F2883557F8080C616800F03800B0EB2F
:1032C000C10F3FF452AFFEF773FE801BA842F1D945
:1032D000032001B0BDE8F08357F8181C8901D5D54B
:1032E000DCE757F8181C4907D0D5D7E700000000E5
:1032F00080B500F04DF844F2184146F26C33C5F643
:103300000201C0F603030A68096801F00F01C2F365
:103310000322595C9A5C02F01F0220FA02F201F0CB
:103320001F0040F2080122FA00F0C2F200410860DA
:1033300040F20401C2F200410A6080BD00000000BA
:1033400080B5FFF7D5FF44F21C4146F26C32C5F65A
:103350000201C0F603020968C1F30211515C01F0D9
:103360001F01C84080BD000080B5FFF7C1FF44F2D7
:103370001C4146F26C32C5F60201C0F60302096830
:10338000C1F30221515C01F01F01C84080BD000063
:1033900044F20041C5F602010869C0F3C2000328E7
:1033A0000FD002282AD070BB0868800649F20000BE
:1033B000C0F2D03058BF70470968C1F3C101C8409E
:1033C00070478A6A886AC0F3051CC86ABCF1000F9E
:1033D0004B6B1DD0C3F3CC0300F00100584302F047
:1033E0000302022A00EE100AB8EE400A12D0A2B977
:1033F0000868800614D49FED261A1EE047F64000A8
:10340000C0F27D10704740F60010C0F23D007047DA
:10341000002070479FED1D1A0FE09FED1B1A0CE076
:10342000086849F20002C0F2D032C0F3C10022FAAB
:1034300000F001EE100AB8EE411A086B9FED153A44
:103440006FF35F2002EE100A086BC0F34620B8EE5F
:10345000422A013000EE032A00EE10CAB7EE003A0D
:10346000B8EE400A81EE000A32EE031A20EE010A9D
:1034700001EE100AB8EE411A80EE010ABCEEC00A55
:1034800010EE100A704700BF0024744A20BCBE4BE7
:103490000024744C000000392DE9F04381B0F8B1EC
:1034A0008046007844F20049C007C5F602095AD0A8
:1034B000D9F8100000F03801D9F82800102905D0FB
:1034C00018290FD100F0030002280BD1D9F8000011
:1034D000800344D5D8F80400002840D101272FE00C
:1034E000012735E2D8F804402CB1B4F5A02F0DD057
:1034F000B4F5803F10D0D9F8000020F48030C9F82E
:103500000000D9F8000020F4802009E0D9F800007C
:1035100040F48020C9F80000D9F8000040F4803061
:10352000C9F80000FEF744FD0546A4B1D9F8000033
:10353000800314D4FEF73CFD401B6428F6D9032712
:103540000020002800F004820DE000BFFEF730FDEF
:10355000401B6428F3D8D9F800008003F6D401207A
:10356000002800F0F58198F80000800740F1848081
:10357000D9F8100010F03801D9F828001CD018290B
:1035800008BF5FEA807017D0D8F80C00D9F8001097
:10359000002847D021F019010843C9F80000FEF7C0
:1035A00007FD0546D9F8000040072AD4FEF700FDC4
:1035B000401B0228F6D91EE0D9F80000400704D5C8
:1035C000D8F80C00002800F09181D9F80000D8F854
:1035D0000C1020F019000843C9F80000FEF7E8FCC1
:1035E000054600BFD9F8000040070AD4FEF7E0FC0A
:1035F000401B0228F6D903270024002C00F0A881E4
:103600003AE0FEF7CDFC41F20301884223D8D8F816
:103610001000D9F80410402821F47C3124D141F461
:10362000003023E021F00100C9F80000FEF7C0FCE3
:1036300005460126D9F8000010F0040086EA90043F
:1036400017D0FEF7B5FC401B0328F3D30327002C4B
:1036500000F07E8110E0D9F80400D8F8101020F0B6
:10366000FE4040EA016001E041EA0030C9F8040090
:103670000124002C00F06C8198F80000C00674D57D
:10368000D9F8100000F03801D9F82800082905D031
:1036900018291CD100F00300012818D1D9F8000026
:1036A000C00503D5D8F81C00802859D1FEF778FC56
:1036B00041F20301884222D8D8F82000D9F804103A
:1036C000202821F0F84142D141F0804041E0D8F873
:1036D0001C000028D9F8000020D040F08000C9F874
:1036E0000000FEF765FC0546D9F80000C005DDD4F2
:1036F000FEF75EFC401B0228F6D9032731E0D9F81B
:103700000C00D8F8201020F07C50012440EA016021
:10371000C9F80C00002C00F01B8126E020F080008E
:10372000C9F80000FEF744FC05460126D9F8000060
:1037300010F4807086EA10240ED0FEF739FC401B8E
:103740000328F3D30327002C00F002810DE041EAA7
:103750008060C9F804000124002C00F0F98004E026
:1037600001270024002C00F0F38098F800000007E7
:103770001CD498F80000800631D498F80000400767
:1037800045D4D8F82440002C00F0E180D9F810008E
:1037900000F03800182840F08880012CD9F8281053
:1037A000D9F8300040F0A4800127D1E0D8F8140007
:1037B0000028D9F874003ED040F00100C9F8740028
:1037C000FEF7F6FB054600BFD9F874008007D0D499
:1037D000FEF7EEFB401B0228F6D90327B8E0D8F825
:1037E00018000028D9F800004BD040F48050C9F8E8
:1037F0000000FEF7DDFB0546D9F800008004BCD4CC
:10380000FEF7D6FB401B0228F6D90327A0E0D9F823
:10381000000440F48070C9F80004FEF7C9FB0546B7
:10382000D9F80004C0051AD4FEF7C2FB401B642877
:10383000F6D903278CE020F00100C9F87400FEF7E8
:10384000B7FB0546032700BFD9F8740080077FF552
:1038500090AFFEF7ADFB401B0228F5D978E0D8F811
:1038600008401CB1052C77D0012C7BD0D9F8700012
:1038700020F00100C9F87000D9F8700020F00400B1
:1038800074E020F48050C9F80000FEF791FB054673
:10389000032700BFD9F8000080047FF56EAFFEF764
:1038A00087FB401B0228F5D952E0D9F8000020F030
:1038B0008070C9F80000FEF77BFB022C05464FF034
:1038C000030709D1D9F80000800171D5FEF770FB1C
:1038D000401B0228F6D93BE0D9F80000800136D51C
:1038E000FEF766FB401B0228F6D931E0012783E68C
:1038F00001F00302D8F828309A4240F0D380C1F397
:103900000511D8F82C20914240F0CE800146D8F81D
:1039100030206FF35F21013A914240F0C780C0F33D
:103920004622D8F8341001398A4240F0C180C0F3F1
:103930000642D8F8381001398A4240F0BB80C0F303
:103940000660D8F83C100139884240F0B580002765
:10395000F8B201B0BDE8F083D9F8700040F004007F
:10396000C9F87000D9F8700040F00100C9F8700083
:10397000FEF71EFB002C054641F288344FF003078A
:1039800011D000BFD9F8700080073FF5FAAEFEF7FE
:103990000FFB401BA042F5D9DAE700BFFEF708FB9A
:1039A000401BA042D4D8D9F870008007F6D4E8E6CE
:1039B00008F12807D9F8280040F2F33188438ECF68
:1039C0000843591E40EA02104FF47E426FF35F2114
:1039D000C9F8280002EB47204FF4FE0280B2D8F865
:1039E0003C300844D8F8381002EB01414FF0FE4259
:1039F00001F4FE0102EB0362084402F0FE410844B8
:103A0000C9F83000D9F82C004FF6F87120F0010009
:103A1000C9F82C00D9F83400D8F84820884340EA87
:103A2000C200C9F83400D9F82C00D8F8401020F0B2
:103A30000C000843C9F82C00D9F82C00D8F8441021
:103A400020F002000843C9F82C00D9F82C0040F4FB
:103A50008030C9F82C00D9F82C0040F40030C9F8A7
:103A60002C00D9F82C0040F48020C9F82C00D9F89B
:103A70002C0040F00100C9F82C00D9F8000040F0FB
:103A80008070C9F80000FEF793FA04460327D9F8BE
:103A9000000080013FF55BAFFEF78AFA001B0228A9
:103AA000F5D955E7012753E7012751E701274FE7EC
:103AB00001274DE701274BE7012749E700000000F8
:103AC00020B3B0B5044690F82C000D4628B900206C
:103AD00084F82D00204600F01BF8022084F82C000A
:103AE0002068211DFDF760FCD4E900022946FDF79E
:103AF000C7FC44F20000C5F20020016841F000411B
:103B00000160012084F82C000020B0BD0120704726
:103B1000B0B586B044F2E04040F60005C5F60200BC
:103B2000C5F6020501AC50F80C1C41F4805140F878
:103B30000C1C50F80C1C01F4805101910199016892
:103B400041F004010160016801F004010191019953
:103B5000016841F008010160016801F0080101916C
:103B60000199016841F010010160016801F0100144
:103B700001910199016841F020010160016801F0A3
:103B8000200101910199016841F040010160006844
:103B9000214600F04000019001980D200190022084
:103BA000029001200390032004900C2005902846E9
:103BB000FEF716F94CF20370019005F5806021467E
:103BC000FEF70EF94FF68370019005F5006021466F
:103BD000FEF706F94FF63F00019005F540602146DB
:103BE000FEF7FEF848F23710019005F580502146A7
:103BF000FEF7F6F806B0B0BDB0B5054690F82C005B
:103C0000022801D10220B0BD95F82C000124012822
:103C100008D1022085F82C002868FDF70DFC85F8F6
:103C20002C4000242046B0BDB0B5044690F82C00CE
:103C30000D46052804D0022808BFB0BD01280BD1CD
:103C4000022084F82C0020682946FDF701FC286832
:103C5000022803D1052002E00120B0BD012084F834
:103C60002C000020B0BD000088B370B5044690F869
:103C7000450015460E4628B9002084F84400204629
:103C800000F02AF8206804F10801FDF709FB20681C
:103C90003146A268FDF754FBD4E90102E36A2946E4
:103CA000FDF7DAFAA068216851F8202042F00102FD
:103CB00041F8202044F20000C5F20020016841F0E4
:103CC00000410160012084F84500002070BD012002
:103CD0007047000000000000B0B586B044F2E0403C
:103CE00040F60044C5F60200C5F6020401AD50F8E6
:103CF0000C1C41F4805140F80C1C50F80C1C01F4D1
:103D0000805101910199016841F008010160016849
:103D100001F0080101910199016841F01001016071
:103D20000068012100F01000019001984EF2B3707C
:103D3000019002200290CDE903100C20059020464E
:103D40002946FEF74DF84FF68070019004F580602B
:103D50002946FEF745F806B0B0BD0000000000009F
:103D600080B500F091FE80BD7047000000000000AB
:103D700070470000000000007047000000000000D5
:103D800060B310B5044690F83D0028B9002084F8CF
:103D90003C00204600F024F8022084F83D00206812
:103DA000211D00F0FDFE012084F8480084F83E004B
:103DB00084F83F0084F8400084F8410084F8420011
:103DC00084F8430084F8440084F8450084F84600F1
:103DD00084F8470084F83D00002010BD01207047A2
:103DE00080B582B041F200010068C4F2000188424F
:103DF00001D002B080BD44F2E8400322C5F60200C3
:103E0000016841F0100101600068012100F010001C
:103E1000019001983620FEF733FB3620FEF72CFB8D
:103E200002B080BD0000000090F83D1001291BD1B8
:103E3000022180F83D10016841F2FF70C4F20000D9
:103E40008142C86840F00100C8600FDC40F2FF709A
:103E5000C4F20000814217DCB1F1804F2BD040F258
:103E60000040C4F2000024E00120704740F2FF301F
:103E7000C4F20100814212DC41F60000C4F20000ED
:103E8000814218D0002012E040F60000C4F2000089
:103E9000814210D040F60040C4F2000009E044F234
:103EA0000000C4F20100814205D040F20040C4F29B
:103EB000010081420BD107228868C0F20102024052
:103EC0000020062A18BFB2F5803F00D1704708686D
:103ED00040F0010008600020704700000000000072
:103EE000704700000000000010B50446006801693A
:103EF000890744BFC1685FEA817140D420680169C5
:103F0000490744BFC1685FEA417144D42068016930
:103F1000090744BFC1685FEA017149D4206801699B
:103F2000C90644BFC1685FEAC1614DD42068016918
:103F3000C9071CBFC1685FEAC17152D1206801691D
:103F4000090644BFC1685FEA016151D42068016974
:103F5000C90544BFC1685FEA016150D420680169A6
:103F6000490644BFC1685FEA41614FD420680169D6
:103F7000890644BFC1685FEA81614ED410BD6FF00D
:103F80000201016101212177806980074CD0204620
:103F9000FFF7A6FF4EE06FF00401016102212177D7
:103FA000806910F4407F48D02046FFF799FF4AE02F
:103FB0006FF00801016104212177C069800745D0B5
:103FC0002046FFF78DFF47E06FF0100101610821E7
:103FD0002177C06910F4407F41D02046FFF780FF71
:103FE00043E06FF001010161204600F049F8A5E7C8
:103FF0006FF0800101612046FFF7BAFEA6E76FF47B
:10400000807101612046FFF7AFFEA7E76FF0400126
:104010000161204600F044F8A8E76FF0200101613B
:104020002046FFF7A9FE10BD204600F021F82046EB
:1040300000F022F80020207760E7204600F018F812
:10404000204600F019F8002020775FE7204600F0B6
:104050000FF8204600F010F8002020775EE7204699
:1040600000F006F8204600F007F8002020775DE712
:1040700070470000000000007047000000000000D2
:1040800080B541F200010068C4F20001884218BF07
:1040900080BD01202AF0F4FC80BD0000000000007B
:1040A00070470000000000007047000000000000A2
:1040B0007047000000000000704700000000000092
:1040C0007047000000000000704700000000000082
:1040D000B0B50368044640F62F00D9691D68084052
:1040E000D3F808E020280CD105F020020EF0805013
:1040F000801806D0216F002900F0B1802046884743
:10410000B0BD40F60F00084000F09080012040F262
:104110002012C1F20000C0F200420EEA000C05EAD3
:10412000020010EB0C0000F08180C80718BF15F4E6
:10413000807007D001201862D4F88C0040F0010094
:10414000C4F88C0088070EF0010208D53AB10220AD
:104150001862D4F88C0040F00400C4F88C004807C2
:1041600008D53AB104201862D4F88C0040F002005F
:10417000C4F88C0008070CD505F0200050EA0C00AC
:1041800007D008201862D4F88C0040F00800C4F86A
:104190008C0008050BD515F0806008D04FF4006046
:1041A0001862D4F88C0040F02000C4F88C00D4F8D9
:1041B0008C00002853D011F0200009D005F0200019
:1041C0000EF08051401803D0216F09B12046884776
:1041D0002068D4F88C1001F02801806800F04000BD
:1041E000401800F0A980204600F02EFE206880686C
:1041F000400640F1918000BF206850E8020F21681E
:1042000020F0400041E80202002AF5D1E06F0028CA
:1042100000F0828044F63161C0F600010165FDF7CF
:104220007BFCE0B1E06F016D8847B0BD05EA010C91
:10423000E26E5FEACC603CD5012A3AD110201862C8
:104240009868400641D4B4F85C00B4F85E10B4F845
:104250005E20002A1CBF401A5FEA004100D1B0BDB9
:10426000216851E8001F226821F4907142E8001390
:10427000002BF5D14FF6FE71CEF6FF71226852E8A1
:10428000022F23680A4043E80225002DF6D12021A1
:10429000C4F888100021E166216700BF216851E859
:1042A000001F226821F0100142E80013002BF5D115
:1042B000F4E0C80223D51EF4800020D04FF4801013
:1042C00018622046FFF7FCFEB0BDE06F40F20F42DF
:1042D000C4F202020168914235DC6F22C4F202028C
:1042E000914249DC3F22C4F2020291426ADC102270
:1042F000C4F20202914200F08880282281E0080680
:104300000ED505F080000EF40002801808D0616F11
:1043100000297FF4F3AEA2E72046FFF7D5FEB0BD3B
:104320005FEA4C6024D4080241D515F080403ED0AD
:104330002046FFF7C1FEB0BD2046FFF7C5FE0020B6
:10434000C4F88C00B0BD40F26F42C4F20202914248
:104350001EDC40F23F42C4F20202914239DC40F2DC
:104360001042C4F2020291424FD040F2284248E08B
:10437000204600F099FDB0BD9F22C4F20202914296
:1043800030DC7022C4F2020291423ED0882238E032
:1043900040F29F42C4F2020291422ADC40F2704293
:1043A000C4F20202914230D040F2884229E0C801B2
:1043B0007FF555AFB5F1FF3FC8BFB0BD2046FFF751
:1043C00077FEB0BD4022C4F2020291421DD05822B5
:1043D00017E040F24042C4F20202914215D040F28E
:1043E00058420EE0A022C4F2020291420DD0B8223F
:1043F00007E040F2B842C4F20202914205D040F216
:10440000A042C4F20202914201D1E16F0968043175
:1044100009688AB2002A3FF422AFB4F85C309A42AD
:10442000BFF41DAFA4F85E10C069B0F5807F30D036
:10443000206850E8000F216820F4807041E80002F5
:10444000002AF5D1206850E8020F216820F0010011
:1044500041E80202002AF5D1206850E8020F2168E5
:1044600020F0400041E80202002AF5D12020C4F8E3
:1044700088000020E06600BF206850E8000F216837
:1044800020F0100041E80002002AF5D1E06FFDF7AE
:1044900063F8B4F85C00B4F85E10401A81B22046AC
:1044A000FFF702FEB0BD000010B5B0B10446D0F871
:1044B000840028B9002084F88000204600F028F805
:1044C0002420C4F884002068016821F00101016003
:1044D000204600F049FF012801D1012010BDA06A4B
:1044E00010B1204600F0FCFB2068416821F49041A7
:1044F0004160816821F02A018160016841F0010179
:104500000160204600F05CFC10BD000000000000CF
:1045100070B586B041F200010068C4F20101884222
:1045200001D006B070BD44F2E0400024C5F60200A0
:10453000C5F6020401AD0726016941F010010161D1
:10454000016901F0100101910199016841F0010137
:104550000160016801F0010101910199016841F0D8
:10456000010101600068012100F001000190019843
:104570004FF40070019002200290CDE90310204614
:1045800029460596FDF72CFC4FF4806001902046EB
:1045900029460596FDF724FC2520FDF76DFF252013
:1045A00003210322FDF76CFF06B070BD0000000080
:1045B00080B5D0F88830202B0AD10123002918BFFC
:1045C000002A01D1184680BD90F88030012B01D11E
:1045D000022080BD012380F880300023C36640F6AE
:1045E0000043D0F800C0C5F600039C4510D0DCF8AD
:1045F00004301B020CD500BF036853E800CFD0F88D
:1046000000E04CF080634EE8003CBCF1000FF3D1B9
:1046100001F06EF90023184680BD00000000000084
:1046200080B541F200010068C4F20101884218BF60
:1046300080BD40F6C800C2F2004001880A0425D4BB
:1046400040F2A062C2F2004213784A0404D40D2B57
:104650000CD141F4804218E048F2000C0022CFF661
:10466000FF7C0A2B08BF41EA0C020EE040F6000E68
:104670004A1C6FF39F31C2F2004E1FFA82FCBCF15C
:10468000C70F0EF8013088BF0022028040F2707020
:1046900040F2A061C2F20040C2F200410122FFF7E5
:1046A00087FF80BD00000000704700000000000090
:1046B000FEE7000000000000F0B500680027D1E927
:1046C00000CE00EBC212C0F6FF77D1E90234C56814
:1046D000D2F8886006F47046C2F88860C6683D402B
:1046E00005EB0E45C6F30B46664401363543C2F86A
:1046F0008850C568D2F88C606FF3DF2506F47046E9
:10470000C2F88C602C44C0686FF3DF20184401307D
:1047100040EA0440C2F88C00D2F8940020F0070070
:10472000C2F894000B69C2F8943091F83200072B5C
:1047300091F831404FEA00408D69D2F89C604FF00B
:104740000006C2F89C6040EA042091F8307040EA0C
:10475000056040F207743844C2F89C00D2F8980013
:1047600020F0FF00C2F898004869C2F89800D2F81B
:10477000A00020EA0400C2F8A000D1E9070440EA42
:104780000400C2F8A00002F18400D2F8AC40C2F8E4
:10479000AC604C6AC2F8AC4003D80FA252F8232098
:1047A00000E00122C36AAEEB0C0703F0E023C36212
:1047B0008B6AC96A53437A43073242EA0342C262B0
:1047C000026B40F2FF739A4302630163016841F098
:1047D00001010160F0BD00BF040000000300000003
:1047E00002000000020000000200000001000000C2
:1047F0000100000002000000FEE7000000000000D1
:10480000FEE700000000000000F007004FF0FF3C52
:1048100080F00703042B28BF0423033838BF00208F
:104820000CFA03F399430CFA00F301FA00F022EAC0
:1048300003010843704700007047000000000000BB
:10484000F0B581B044F22C47C5F6020757F8042CA6
:1048500002F00302032A02D1012001B0F0BD054697
:1048600057F82C0C0C4620F0806047F82C0CFDF714
:104870009FFB064657F82C0C000105D5FDF798FB69
:10488000801B0228F6D964E057F8040CEE6895E81E
:104890000E0020F47C30012C40EA0130A2F101012D
:1048A0006FF35F214FF47E4202EB432247F8040C82
:1048B00092B24FF0FE4302EB01004FF4FE012A6971
:1048C00001EB064101F4FE0103EB0262084402F031
:1048D000FE410844F8603868696920F0C00040EA89
:1048E000010038603868A96920F0200040EA010022
:1048F000386038684FF6F87120F010003860386979
:10490000EA6920EA01004FF4001140EAC200386170
:10491000386808BF4FF4801140F01000002C386058
:1049200008BF4FF4002138680843386057F82C0C52
:1049300040F0806047F82C0CFDF73AFB044600BFBE
:1049400057F82C0C000107D4FDF732FB001B03289D
:10495000F6D3032001B0F0BD002001B0F0BD00008F
:10496000F0B581B044F22C47C5F6020757F8042C85
:1049700002F00302032A02D1012001B0F0BD054676
:1049800057F82C0C0C4620F0805047F82C0CFDF703
:104990000FFB064657F82C0C800005D5FDF708FBE9
:1049A000801B0228F6D964E057F8040CEE6895E8FD
:1049B0000E0020F07C70012C40EA0150A2F10101B0
:1049C0006FF35F214FF47E4202EB432247F8040C61
:1049D00092B24FF0FE4302EB01004FF4FE012A6950
:1049E00001EB064101F4FE0103EB0262084402F010
:1049F000FE41084478613868696920F4406040EA03
:104A0000010038603868A96920F4007040EA0100AC
:104A1000386038684FF6F87120F480703860B869F3
:104A2000EA6920EA01004FF0807140EAC200B861F3
:104A3000386808BF4FF4000140F48070002C3860E3
:104A400008BF4FF4800138680843386057F82C0CD1
:104A500040F0805047F82C0CFDF7AAFA044600BF3E
:104A600057F82C0C800007D4FDF7A2FA001B03288E
:104A7000F6D3032001B0F0BD002001B0F0BD00006E
:104A80007047000000000000B0B501380024B4EB0E
:104A9000106F01D00120B0BD4EF210050F21CEF2F3
:104AA000000568604FF0FF3001F056F8AC60072059
:104AB00028602046B0BD000080B5FDF781FA80BDBA
:104AC0004EF6885042F2000CCEF20000C5F2002CE7
:104AD000016841F470010160DCF8000000F00F0093
:104AE000062806D8DCF80000072161F30300CCF8A3
:104AF000000044F200404EF67F52C5F60200CEF6AA
:104B0000F622016841F001010160002101610368A2
:104B10001A400260DCF80020120706D5DCF80020FD
:104B2000072363F30302CCF8002040F200228161E6
:104B3000C161C0F20222016282620022C0F2FF1251
:104B4000C26240F28022C0F20112026341638263BA
:104B5000C16302644164026822F48022026001663B
:104B600041F20000C5F600400068B1EB507F05D16E
:104B700048F208100121C5F20010016044F2000063
:104B800043F2D201C5F2002001607047000000002E
:104B900080B540F22470C2F20040FFF7A5F980BD55
:104BA00010B540F6FF32C4F20002904202680FDCFA
:104BB000B0F1804F1DD040F20043C4F20003984290
:104BC00017D040F60003C4F20003984211D014E05D
:104BD00040F60043C4F2000398420AD040F200437A
:104BE000C4F20103984204D00023C4F201039842A6
:104BF00003D122F070024B681A434FF6FF7343F65D
:104C0000FF7CC4F20003C4F2010C984210DD604541
:104C10001ADD44F20003C4F2010398422CD044F69A
:104C20000003C4F20103984226D044F2004312E08C
:104C300040F2FF73C4F20003984211DCB0F1804FE0
:104C40001AD040F2004313E00023C4F2010398425B
:104C500012D040F20043C4F2010398420CD00FE09E
:104C600040F60003C4F20003984205D040F600432A
:104C7000C4F20003984203D122F44072CB681A4375
:104C800022F080024C696045D1F800E08B6842EA6E
:104C900004020260C362C0F828E00EDD44F20002A4
:104CA000C4F20102904213D044F60002C4F20102A1
:104CB00090420DD044F2004206E00022C4F201020C
:104CC000904205D040F20042C4F20102904201D16C
:104CD000096901630121416110BD0000000000006D
:104CE000816ACA070CD18A0715D44A071ED40A075D
:104CF00027D4CA0630D48A0639D44A0655D541E0AD
:104D00000268D0F82CC0536823F4003343EA0C0344
:104D100053608A07E9D50268D0F830C0536823F49D
:104D2000803343EA0C0353604A07E0D50268D0F8A9
:104D300034C0536823F4802343EA0C0353600A070A
:104D4000D7D50268D0F838C0536823F4004343EA4B
:104D50000C035360CA06CED50268D0F83CC09368F5
:104D600023F4805343EA0C0393608A06C5D5026896
:104D7000D0F840C0936823F4005343EA0C039360D7
:104D80004A0612D50268D0F844C0BCF5801F5368AB
:104D900023F4801343EA0C03536006D1536823F4D1
:104DA000C00C836C43EA0C035360090658BF70477C
:104DB0000168C06C4A6822F40022104348607047C2
:104DC000B0B582B004460020C4F88C00FDF7F0F8BE
:104DD00021680546096809070AD54FF40011002229
:104DE0006FF07E40009020462B4600F019FE70B90F
:104DF0002068006840070DD54FF4800100226FF055
:104E00007E40009020462B4600F00AFE10B10320A1
:104E100002B0B0BD2020C4F88400C4F8880000208F
:104E2000E06684F8800002B0B0BD00000000000021
:104E300080B5806B0021A0F85E10A0F85610FFF737
:104E400043F980BD00000000016851E8001F0268BE
:104E500021F4907142E80013002BF5D14FF6FE7C4F
:104E6000CEF6FF7C026852E8022F036802EA0C02C9
:104E700043E802210029F5D1C16E01290AD100BF02
:104E8000016851E8001F026821F0100142E8001398
:104E9000002BF5D12021C0F888100021C1660167E0
:104EA000704700000000000080B500BF016851E8B5
:104EB000001F026821F0400142E80013002BF5D1E9
:104EC0002021C0F8841000214167FFF7EDFB80BD71
:104ED00080B5B0F860100268D0F88830222B42D13B
:104EE000526A836D114023F8021B8365B0F85E108F
:104EF0000139A0F85E10B0F85E10002918BF80BD1F
:104F0000016851E8001F026821F4907142E8001323
:104F1000002BF5D1016851E8021F026821F0010160
:104F200042E80213002BF5D12021C0F8881000219F
:104F30000167C26E012A1BD1C16600BF016851E83A
:104F4000001F026821F0100142E80013002BF5D188
:104F50000168CA69D20601D510220A62B0F85C1055
:104F6000FFF7A2F880BD906940F00800906180BD15
:104F7000FFF756FB80BD00002DE9F04F81B00446DD
:104F80000368B0F86090DA6918689968D4F8887096
:104F9000222F2AD1B4F86860002E18BF12F0200228
:104FA0002AD1B4F85E00E8B1B4F86810884219D28A
:104FB000206850E8020F216820F0805041E802028A
:104FC000002AF5D144F6D160C0F60000206700BF8A
:104FD000206850E8000F216840F0200041E80002FE
:104FE000002AF5D101B0BDE8F08F986940F00800C3
:104FF000986101B0BDE8F08F4FF6FE7500F480783F
:1050000001F00107CEF6FF754FF0000B07E02046D8
:10501000FFF706FB002E18BF1AF02000C1D0206851
:10502000A16D426A02EA090221F8022BA165B4F8D7
:105030005E100139A4F85E10D0F81CA05FEA4A7136
:105040002FD0B8F1000F18BF1AF0010107D00121CD
:105050000162D4F88C1041F00101C4F88C10002FCB
:1050600018BF1AF0020107D002210162D4F88C1097
:1050700041F00401C4F88C10002F18BF1AF004018D
:1050800007D004210162D4F88C0040F00200C4F87B
:105090008C00D4F88C0020B12046FFF715F8C4F836
:1050A0008CB0B4F85E000028B4D100BF206850E88E
:1050B000000F216820F4807041E80002002AF5D139
:1050C000206850E8020F2168284041E80202002AC7
:1050D000F6D12020C4F88800C4F870B0E06E012832
:1050E00095D1C4F86CB000BF206850E8000F21686B
:1050F00020F0100041E80002002AF5D12068C169C3
:10510000C90601D510210162B4F85C102046FEF7F3
:10511000CBFF7FE70000000080B5B0F860100268A8
:10512000D0F88830222B44D1526A836D1140197017
:10513000816D01318165B0F85E100139A0F85E1013
:10514000B0F85E10002918BF80BD00BF016851E8AB
:10515000001F026821F4907142E80013002BF5D182
:10516000016851E8021F026821F0010142E80213C0
:10517000002BF5D12021C0F8881000210167C26EF4
:10518000012A1BD1C16600BF016851E8001F0268F7
:1051900021F0100142E80013002BF5D10168CA6923
:1051A000D20601D510220A62B0F85C10FEF77CFF2F
:1051B00080BD906940F00800906180BDFFF730FA33
:1051C00080BD0000000000002DE9F04F81B00446D2
:1051D0000368B0F86090DA6918689968D4F8887044
:1051E000222F2AD1B4F86860002E18BF12F02002D6
:1051F0002AD1B4F85E00E8B1B4F86810884219D238
:10520000206850E8020F216820F0805041E8020237
:10521000002AF5D145F21910C0F60000206700BF42
:10522000206850E8000F216840F0200041E80002AB
:10523000002AF5D101B0BDE8F08F986940F0080070
:10524000986101B0BDE8F08F4FF6FE7500F48078EC
:1052500001F00107CEF6FF754FF0000B07E0204686
:10526000FFF7DEF9002E18BF1AF02000C1D0206829
:10527000A16D406A00EA09000870A06D0130A065C8
:105280002068B4F85E100139A4F85E10D0F81CA0B4
:105290005FEA4A712FD0B8F1000F18BF1AF0010170
:1052A00007D001210162D4F88C1041F00101C4F84B
:1052B0008C10002F18BF1AF0020107D002210162E2
:1052C000D4F88C1041F00401C4F88C10002F18BFE2
:1052D0001AF0040107D004210162D4F88C0040F0D8
:1052E0000200C4F88C00D4F88C0020B12046FEF7F0
:1052F000EBFEC4F88CB0B4F85E000028B2D100BF59
:10530000206850E8000F216820F4807041E8000216
:10531000002AF5D1206850E8020F2168284041E8B2
:105320000202002AF6D12020C4F88800C4F870B028
:10533000E06E012893D1C4F86CB000BF206850E83B
:10534000000F216820F0100041E80002002AF5D18A
:105350002068C169C90601D510210162B4F85C104A
:105360002046FEF7A1FE7DE7F0B583B00446036852
:10537000806846F6F316D4E90312104362691043BD
:10538000E2691F68CCF6FF76104307EA0602104375
:10539000186058684FF2FF4720F4405240F6004032
:1053A00011435960C5F60000A1698342C1F2FF179D
:1053B0001CBF226A11439A6847F2FF763A40C4F252
:1053C000000611439960DA6A44F2544122F00F0258
:1053D000676AC5F602013A43B342DA624FF08002CF
:1053E00025DD40F6FF77C4F20107BB423FDD834273
:1053F00000F0718041F20047C4F20107BB4200F0A7
:10540000758041F20007C4F20107BB4240F0A5805D
:105410000A68C2F3C203052B00F296800122DFE87E
:1054200013F09C0091009500970099009B0044F6B2
:10543000FF37C4F20007BB4233DC44F20047C4F23A
:105440000007BB4200F05D8044F60007C4F200078D
:10545000BB4240F082800A6802F00703052B00F28D
:1054600073800022DFE803F0796E7274767847F675
:105470000007C4F20007BB4200F04E8047F6004729
:10548000C4F20007BB4240F068800A6802F00703DC
:10549000052B00F259800022DFE803F05F54585AD0
:1054A0005C5E44F60047C4F20007BB4200F03F8058
:1054B00045F20007C4F20007BB4240F04E800A6884
:1054C00002F00703052B00F23F800022DFE803F023
:1054D000453A3E4042444A6802F00703052B33D860
:1054E0000222DFE803F03A2F333537390A68C2F376
:1054F000C203052B28D80122DFE803F02F24282A35
:105500002C2E0A6802F00703052B1DD80022DFE8C5
:1055100003F024191D1F21230A6802F00703052B3D
:1055200012D80022DFE803F0190E121416180A68C8
:1055300002F00703052B07D80022DFE803F00E0373
:1055400007090B0D042208E0802206E0082204E08F
:10555000102202E0202200E040222368834240F62D
:105560000010C0F23D0000F05380E369B3F5004F36
:1055700040F07880402A00F21A810025DFE812F01E
:1055800041001201170117011B0117011701170133
:105590001F01170117011701170117011701170143
:1055A000260117011701170117011701170117012C
:1055B000170117011701170117011701170117012B
:1055C00034011701170117011701170117011701FE
:1055D000170117011701170117011701170117010B
:1055E00017011701170117011701170117011701FB
:1055F00017011701170117011701170117011701EB
:1056000031010025FDF79CFE002840F0EF8049E1C4
:10561000931E1E2B00F274800027DFE813F01F009A
:1056200077007A007700770077007E0077007700B8
:1056300077007700770077007700B8007700770071
:1056400077007700770077007700770077007700A2
:105650007700770077007700770083000027FCF75A
:105660002FFF5FE0402A00F2E6800025DFE812F01D
:105670004100DE00E300E300E700E300E300E300B5
:10568000EB00E300E300E300E300E300E300E300FA
:10569000F200E300E300E300E300E300E300E300E3
:1056A000E300E300E300E300E300E300E300E300E2
:1056B0000001E300E300E300E300E300E300E300B4
:1056C000E300E300E300E300E300E300E300E300C2
:1056D000E300E300E300E300E300E300E300E300B2
:1056E000E300E300E300E300E300E300E300E300A2
:1056F000FD000025FDF724FE002840F0BA80D1E02F
:10570000402A03D14FF4004000270BE0002001277E
:1057100008E06846FCF7E8FE02E06846FCF778FF20
:105720000027019878B3616A46F29A32C0F6030204
:105730006668012532F8112006EB4603B0FBF2F152
:105740009942C0F0AF803303994200F2AB80002150
:105750000023FAF74EFE0902002341EA10613246A7
:10576000000210EB560041F10001FAF742FE4FF63D
:10577000FF42A0F54071C0F20F02914205D82168A6
:105780003D46C8608EE03D468CE001258AE051F838
:10579000540C800649F20000C0F2D03000F18B803A
:1057A0000027BFE70025FDF7DFFDF8B97AE000200C
:1057B0000125D8B976E06846FCF796FE02E0684617
:1057C000FCF726FF0025019880B96BE051F8540CD6
:1057D000800649F20000C0F2D03073D4002528B909
:1057E00060E04FF40040002500285BD0616A46F27B
:1057F0009A32C0F6030232F811106268B0FBF1F081
:10580000510801EB4000B0FBF2F0A0F110014FF69F
:10581000EF72914208D84FF6F07122680140C0F350
:1058200042000844D0603DE001253BE00025FDF743
:105830009BFDF0B936E000200125D0B932E0684682
:10584000FCF752FE02E06846FCF7E2FE00250198F4
:1058500078B927E051F8540C800649F20000C0F2F4
:10586000D03039D4002520B91CE04FF40040002589
:10587000C0B1616A46F29A32C0F6030232F81110E2
:105880006268B0FBF1F000EB5200B0FBF2F0A0F167
:1058900010014FF6EF72914203D880B22168C860C0
:1058A00000E001254FF00110A0660020C4E91C00B3
:1058B000284603B0F0BD51F8541C0027C1F3C101C4
:1058C000C8402FE751F8541C0025C1F3C101C8405E
:1058D00000287FF48BAFE5E751F8541C0025C1F395
:1058E000C101C8400028C4D1DCE70000000000006E
:1058F00081650023A0F85C20A0F85E208168036722
:1059000051B1B1F1805F0BD0B1F5805F0CD101696D
:1059100021B940F2FF110AE0016939B9FF2106E01F
:10592000016919B13F2102E0002100E07F21A0F8C8
:1059300060100021C0F88C102221C0F8881000BF30
:10594000016851E8021FD0F800C041F001014CE8A5
:105950000213002BF4D1416EB1F1005F03D1B0F816
:105960006810914229D98168B1F5805F02D101693F
:10597000002949D045F21911C0F6000102690167FA
:105980004FF0000180F8801062B100BF016851E85B
:10599000001F026841F4907142E80013002BF5D11A
:1059A00030E000BF016851E8001F026841F02001AB
:1059B00042E80013002BF5D124E08168B1F5805F47
:1059C00001D1016929B345F2C911C0F6000102698C
:1059D00001674FF0000180F880104AB1016851E87A
:1059E000001F026841F4807142E80013002BF5D1DA
:1059F000016851E8021F026841F0805142E8021339
:105A0000002BF5D10020704744F6D161C0F60001AB
:105A1000B4E744F67971C0F60001D8E70000000051
:105A20002DE9F04381B004460068C0690840401A7F
:105A3000B0FA80F04009904264D1DDF820800D4634
:105A40001646994608F1010709E000BF2068C069C1
:105A50002840401BB0FA80F04009B04252D1002FDC
:105A6000F4D0FCF7A5FAB8F1000F2BD0A0EB090099
:105A7000404527D820680168490744BFC1695FEAEB
:105A80000151E3D54FF40061016200BF206850E886
:105A9000000F216820F4D07041E80002002AF5D1FF
:105AA000206850E8020F216820F0010041E802025E
:105AB000002AF5D12020C4F88400C4F88800C4F876
:105AC0008C0018E0206850E8000F216820F4D070A6
:105AD00041E80002002AF5D1206850E8020F216851
